:100000000C9472000C9493000C9493000C94930045
:100010000C9493000C9493000C9493000C94930014
:100020000C9493000C9493000C9493000C94930004
:100030000C9493000C9493000C9493000C949300F4
:100040000C9493000C9493000C9493000C949300E4
:100050000C9493000C9493000C9493000C949300D4
:100060000C9493000C9493000C9493000C949300C4
:100070000C9493000C9493000C9493000C949300B4
:100080000C9493000C9493000C9493000C949300A4
:100090000C9493000C9493000C9493000C94930094
:1000A0000C9493000C9493000C9493000C94930084
:1000B0000C9493000C9493000C9493000C94930074
:1000C0000C9493000C9493000C9493000C94930064
:1000D0000C9493000C9493000C9493000C94930054
:1000E0000C94930011241FBECFEFD1E2DEBFCDBF31
:1000F00000E00CBF13E0A0E0B2E0EEE1FFE000E0C2
:100100000BBF02C007900D92A639B107D9F723E0C3
:10011000A6E9B3E001C01D92A13AB207E1F70E943F
:1001200046010C948D070C940000CF93DF9300D010
:10013000CDB7DEB79A8389836B834B8189819A819E
:10014000FC01828193819C0189819A81FC018081DB
:100150009181B9010E946D0500000F900F900F90E2
:10016000DF91CF910895CF93DF93CDB7DEB7289776
:100170000FB6F894DEBF0FBECDBF9A8389834B8341
:100180005C836D837E838B819C81AD81BE8129815F
:100190003A81F90122813381B90129813A81F9013A
:1001A0000190F081E02DF887EF839C01AD018F81F4
:1001B00098850E949E0528960FB6F894DEBF0FBE64
:1001C000CDBFDF91CF910895CF93DF931F921F9200
:1001D000CDB7DEB79A83898389819A81880F991F69
:1001E000880F991F80599D4F0F900F90DF91CF91ED
:1001F00008951F93CF93DF9300D01F92CDB7DEB742
:100200009A8389837C836B8311E08B819C81892B0A
:1002100009F410E089819A810E94E400612F0E9414
:10022000950000000F900F900F900F90DF91CF91ED
:100230001F910895CF93DF9300D01F921F92CDB7E7
:10024000DEB79C838B836D838B819C810E94E4004D
:100250009A8389838D81813029F480E091E0A0E048
:10026000B0E004C081E090E0A0E0B0E029813A81F4
:10027000AC01BD01C9010E94B30000000F900F90B6
:100280000F900F900F90DF91CF910895CF93DF9350
:10029000CDB7DEB761E08DE090E00E941A0124EF57
:1002A00031E040E050E060E070E080E090E00E94EB
:1002B000C70161E070E08DE090E00E94F90024EF5A
:1002C00031E040E050E060E070E080E090E00E94CB
:1002D000C70160E070E08DE090E00E94F900DFCFA0
:1002E000AF92BF92CF92DF92EF92FF920F931F9344
:1002F000CF93DF93CDB7DEB728970FB6F894DEBF64
:100300000FBECDBF0E941F03809196038983809109
:1003100097038A83809198038B83809199038C83C0
:1003200080919A038D8380919B038E8380919C039F
:100330008F8380919D0388870E94460329813A819B
:100340004B815C816D817E818F819885A22EB32E39
:10035000C42ED52EE62EF72E082F192F2A2D3B2D31
:100360004C2D5D2D6E2D7F2D802F912F28960FB651
:10037000F894DEBF0FBECDBFDF91CF911F910F91DB
:10038000FF90EF90DF90CF90BF90AF9008952F92A5
:100390003F924F925F926F927F928F929F92AF9215
:1003A000BF92CF92DF92EF92FF920F931F93CF9362
:1003B000DF93CDB7DEB768970FB6F894DEBF0FBEF8
:1003C000CDBF298B3A8B4B8B5C8B6D8B7E8B8F8B50
:1003D000988F0E946902A22EB32EC42ED52EE62E2F
:1003E000F72E082F192FA982BA82CB82DC82ED82E8
:1003F000FE820F83188729813A814B815C816D8150
:100400007E818F819885A988BA88CB88DC88ED8821
:10041000FE880F89188D0E945B07A22EB32EC42E72
:10042000D52EE62EF72E082F192FA986BA86CB8651
:10043000DC86ED86FE860F87188B00000E9469021D
:10044000222E332E442E552E662E772E882E992E50
:1004500029853A854B855C856D857E858F85988954
:10046000A22CB32CC42CD52CE62CF72C082D192D3E
:100470000E946407A22EB32EC42ED52EE62EF72E90
:10048000082F192F2A2D3B2D4C2D5D2D6E2D7F2DE4
:10049000802F912FA0E00E946D0709F07CF60000EC
:1004A00068960FB6F894DEBF0FBECDBFDF91CF9137
:1004B0001F910F91FF90EF90DF90CF90BF90AF9082
:1004C0009F908F907F906F905F904F903F902F9074
:1004D00008952F923F924F925F926F927F928F92E8
:1004E0009F92AF92BF92CF92DF92EF92FF920F93C3
:1004F0001F93CF93DF93CDB7DEB70E947001A22E7A
:10050000B32EC42ED52EE62EF72E082F192F2A2C07
:100510003B2C4C2C5D2C6E2C7F2C802E912E209110
:100520000002309101024091020250910302609159
:100530000402709105028091060290910702A22E9A
:10054000B32EC42ED52EE62EF72E082F192F222DCE
:10055000332D442D552D662D772D882D992D0E94F4
:100560008506222E332E442E552E662E772E882E6B
:10057000992EA22CB32CC42CD52CE62CF72C082DAC
:10058000192D2A2D3B2D4C2D5D2D6E2D7F2D802F6D
:10059000912F08E00E943F07A22EB32EC42ED52E25
:1005A000E62EF72E082F192F2A2D3B2D4C2D5D2DD1
:1005B0006E2D7F2D802F912FA22EB32EC42ED52EDF
:1005C000E62EF72E082F192F2A2D3B2D4C2D5D2DB1
:1005D0006E2D7F2D802F912FDF91CF911F910F9145
:1005E000FF90EF90DF90CF90BF90AF909F908F9053
:1005F0007F906F905F904F903F902F900895CF9392
:10060000DF931F92CDB7DEB78FE590E0FC018081CC
:100610008983F89489810F90DF91CF910895CF93CA
:10062000DF931F92CDB7DEB789838FE590E02981F4
:10063000FC01208300000F90DF91CF910895CF93AC
:10064000DF931F92CDB7DEB70E94FF0289838091AE
:100650009F039091A003892B19F4898180939E03B5
:1006600080919F039091A00301969093A0038093A3
:100670009F0380919F039091A003892B11F00E940A
:10068000880700000F90DF91CF910895CF93DF93FB
:10069000CDB7DEB780919F039091A003019790930F
:1006A000A00380939F0380919F039091A0039923BF
:1006B00014F40E94880780919F039091A003892BD6
:1006C00021F480919E030E940F030000DF91CF91DF
:1006D0000895CF93DF931F92CDB7DEB789830000D3
:1006E0000F90DF91CF910895CF93DF9300D01F92A9
:1006F000CDB7DEB79A8389837C836B8300000F902C
:100700000F900F900F90DF91CF910895CF93DF93CB
:10071000CDB7DEB78DE00E9469038AE00E946903CD
:100720000000DF91CF910895CF93DF9300D000D0E8
:10073000CDB7DEB749835A836B837C838D839E83D9
:1007400088E092E00E94D0048B819C810E94D004BA
:100750000E9486038FE092E00E94D0048D819E81EA
:100760000E94D0040E94860386E192E00E94D00499
:1007700089819A810E94F9040E94860300002696CE
:100780000FB6F894DEBF0FBECDBFDF91CF910895B5
:10079000CF93DF9300D01F92CDB7DEB79C838B83BE
:1007A0001A82198205C089819A8101969A83898368
:1007B00089819A812B813C81820F931FFC0180816A
:1007C000882389F789819A810F900F900F900F905D
:1007D000DF91CF9108952F923F924F925F926F9247
:1007E0007F928F929F92AF92BF92CF92DF92EF92C1
:1007F000FF920F931F93CF93DF93CDB7DEB7A497EC
:100800000FB6F894DEBF0FBECDBF2D8F3E8F4F8F3A
:1008100058A369A37AA38BA39CA3CE0105964896FF
:100820009C838B838B819C819A838983AD8CBE8CC6
:10083000CF8CD8A0E9A0FAA00BA11CA12A2D3B2D9A
:100840004C2D5D2D6E2D7F2D802F912FA0E00E94CD
:100850006D0719F480E30E94690389819A810197E9
:100860009A83898389819A81FC01108266C089817B
:100870009A8101979A8389832D8C3E8C4F8C58A046
:1008800069A07AA08BA09CA00F2EFAE0AF2EF02DCD
:10089000B12CC12CD12CE12CF12C00E010E0222D48
:1008A000332D442D552D662D772D882D992D0E94A1
:1008B000DE06A22EB32EC42ED52EE62EF72E082F3E
:1008C000192F2A2D3B2D4C2D5D2D6E2D7F2D802F28
:1008D000912F822F805D282F89819A81FC012083AE
:1008E0002D8C3E8C4F8C58A069A07AA08BA09CA028
:1008F0000F2EFAE0AF2EF02DB12CC12CD12CE12C13
:10090000F12C00E010E0222D332D442D552D662DC5
:10091000772D882D992D0E94E006A22EB32EC42E8D
:10092000D52EE62EF72E082F192FAD8EBE8ECF8E28
:10093000D8A2E9A2FAA20BA31CA3AD8CBE8CCF8CCB
:10094000D8A0E9A0FAA00BA11CA12A2D3B2D4C2D6B
:100950005D2D6E2D7F2D802F912FA0E00E946D07C1
:1009600009F085CF89819A810E94D0040000A49665
:100970000FB6F894DEBF0FBECDBFDF91CF911F91B0
:100980000F91FF90EF90DF90CF90BF90AF909F902E
:100990008F907F906F905F904F903F902F90089531
:1009A000CF93DF931F921F92CDB7DEB79A838983CF
:1009B00089819A81892B69F48EE40E94690385E517
:1009C0000E9469038CE40E9469038CE40E9469031D
:1009D0000AC089819A810E94C8039C0189819A81F9
:1009E000B9010E94740300000F900F90DF91CF9126
:1009F0000895AF92BF92CF92DF92EF92FF920F9342
:100A00001F93CF93DF931F921F92CDB7DEB79A83C8
:100A1000898389819A815C01C12CD12CE12CF12C34
:100A200087012A2D3B2D4C2D5D2D6E2D7F2D802F86
:100A3000912F0E94290500000F900F90DF91CF9118
:100A40001F910F91FF90EF90DF90CF90BF90AF90EC
:100A50000895AF92BF92CF92DF92EF92FF920F93E1
:100A60001F93CF93DF93CDB7DEB728970FB6F894D7
:100A7000DEBF0FBECDBF29833A834B835C836D837A
:100A80007E838F839887A980BA80CB80DC80ED80BD
:100A9000FE800F8118852A2D3B2D4C2D5D2D6E2D4E
:100AA0007F2D802F912F0E94EB03000028960FB618
:100AB000F894DEBF0FBECDBFDF91CF911F910F9194
:100AC000FF90EF90DF90CF90BF90AF900895CF93BD
:100AD000DF93CDB7DEB70E948807CF93DF9300D0B6
:100AE0001F921F92CDB7DEB79A8389837C836B8375
:100AF0004D838D81882361F089819A81FC019281E7
:100B00008B81292F282B89819A81FC0122830CC09B
:100B100089819A81FC0192818B818095292F2823DC
:100B200089819A81FC01228380E090E00F900F90F0
:100B30000F900F900F90DF91CF910895CF93DF9397
:100B4000CDB7DEB7A0970FB6F894DEBF0FBECDBF0E
:100B50009A8F898F7C8F6B8F2D8F3E8F4F8F58A3ED
:100B60008D8D9E8DAF8DB8A18827AA27BB27892B95
:100B70008A2B8B2B71F08D8D9E8DAF8DB8A199270F
:100B8000AA27BB27892B8A2B8B2B19F08FEF9FEF7E
:100B9000B3C08D8D9E8DAF8DB8A181709927AA2786
:100BA000BB27892B8A2B8B2B09F48CC0898D9A8DBE
:100BB000FC0191818B8D8095292F2823898D9A8D19
:100BC000FC0121838D8D9E8DAF8DB8A180719927F9
:100BD000AA27BB27892B8A2B8B2BA1F026E0E8E5DF
:100BE000F2E0CE010196DC0101900D922A95E1F729
:100BF00049815A816B817C818D819E810E94940301
:100C00000E9467058D8D9E8DAF8DB8A1827099274A
:100C1000AA27BB27892B8A2B8B2B99F086E0EEE540
:100C2000F2E0DE01179601900D928A95E1F74F816F
:100C3000588569857A858B859C850E9494030E94DE
:100C400067058D8D9E8DAF8DB8A184709927AA27D9
:100C5000BB27892B8A2B8B2B99F086E0E4E6F2E008
:100C6000DE011D9601900D928A95E1F74D855E8516
:100C70006F85788989899A890E9494030E94670503
:100C80008D8D9E8DAF8DB8A188709927AA27BB271F
:100C9000892B8A2B8B2B99F086E0EAE6F2E0DE01C5
:100CA000539601900D928A95E1F74B895C896D8985
:100CB0007E898F89988D0E9494030E94670580E049
:100CC00090E01AC08D8D9E8DAF8DB8A18827917050
:100CD000AA27BB27892B8A2B8B2B71F0898D9A8DA4
:100CE000FC0191818B8D292F282B898D9A8DFC01F8
:100CF000218380E090E000C0A0960FB6F894DEBF9C
:100D00000FBECDBFDF91CF910895DF93CF931F9397
:100D10000F939A9DF02D219FF00D8B9DF00D8A9DD4
:100D2000E02DF10D039FF00D029FE00DF11D4E9D92
:100D3000E00DF11D5E9DF00D4F9DF00D7F936F93C3
:100D4000BF92AF925F934F93D5010E9479078B01B9
:100D5000AC01D7010E947907EB01E80FF91FD6011A
:100D60000E94D5062F913F91D6010E947907C60FA8
:100D7000D71FE81FF91FAF91BF910E94D5062F9191
:100D80003F910E947907C60FD71FE81FF91FD601B0
:100D90000E947907E60FF71F9801BE01CF011124C9
:100DA0000F911F91CF91DF9108950E947907460F0F
:100DB000571FC81FD91F08F431960895689401C0C1
:100DC000E8948F929F92CF93DF930E94EC06DF917D
:100DD000CF919F908F90089588249924F401E40185
:100DE000B0E49F93AA279A158B049C04ED05FE0599
:100DF000CF05D007A10798F4AD2FDC2FCF2FFE2F02
:100E0000E92D982C892E982F872F762F652F542F18
:100E1000432F322F2227B85031F7BF9127C01B2E06
:100E2000BF91BB27220F331F441F551F661F771F1B
:100E3000881F991F881C991CEE1FFF1FCC1FDD1FE8
:100E4000AA1FBB1F8A149B04EC05FD05CE05DF0518
:100E5000A007B10748F08A189B08EC09FD09CE09E4
:100E6000DF09A00BB10B21601A94E1F62EF4940176
:100E7000AF01BE01CD01000C089597FB10F8169448
:100E800000080F93083098F00850232F342F452F77
:100E9000562F672F782F892F902DF4CF0594979593
:100EA00087957795679557954795379527950A952F
:100EB000AAF70F9108952A0D3B1D4C1D5D1D6E1D57
:100EC0007F1D801F911F08952A193B094C095D0958
:100ED0006E097F09800B910B08950024A7FD0094F3
:100EE0002A173005400550056005700580059005FE
:100EF0000895A29FB001B39FC001A39F700D811DF3
:100F00001124911DB29F700D811D1124911D089512
:0E0F100081E090E0F8940C948D07F894FFCFE8
:100F1E00010000000000000066696C653A20006662
:100F2E00756E633A20006C696E653A20002F686F0B
:100F3E006D652F6D69726D696B2F70726F6A656367
:100F4E00742F7A696C6C6F742F7A696C6C6F742F56
:100F5E00617263682F6176722F61736D2F61767285
:100F6E005F6770696F2E630027001D0288032C00D7
:100F7E001D02880331001D02880336001D028803FE
:100F8E002C0001002C0002002C0010002C00200070
:100F9E00320020002C0008000001080000011000A3
:100FAE00000120000001400023001000230020005B
:100FBE002300400023008000030102000301010012
:100FCE0000010200000101002900080029000400B0
:100FDE00290002002900010020000100200002006B
:100FEE002000040020000800200010002000200037
:100FFE0020004000200080002600800026004000D7
:10100E0026002000260010002600080026000400FE
:10101E002600020026000100290080003200040094
:10102E003200020032000100090180000901400077
:10103E00090120000901100009010800090104003E
:10104E000901020009010100230008002300040029
:10105E0023000200230001002F0001002F000200D8
:10106E002F0004002F0008002F0010002F0020007A
:10107E002F0040002F008000060101000601020033
:10108E0006010400060108000601100006012000FA
:10109E0006014000060180006176725F6770696F1D
:0610AE005F6D6F64650038
:00000001FF
