:100000000C9472000C9493000C9493000C94930045
:100010000C9493000C9493000C9493000C94930014
:100020000C9493000C9493000C9493000C94930004
:100030000C9493000C9493000C9493000C949300F4
:100040000C9493000C9493000C9493000C949300E4
:100050000C9493000C9493000C9493000C949300D4
:100060000C9493000C9493000C9493000C949300C4
:100070000C9493000C9493000C9493000C949300B4
:100080000C9493000C9493000C9493000C949300A4
:100090000C9493000C9493000C9493000C94930094
:1000A0000C9493000C9493000C9493000C94930084
:1000B0000C9493000C9493000C9493000C94930074
:1000C0000C9493000C9493000C9493000C94930064
:1000D0000C9493000C9493000C9493000C94930054
:1000E0000C94930011241FBECFEFD1E2DEBFCDBF31
:1000F00000E00CBF13E0A0E0B2E0E0E0FAE000E0D6
:100100000BBF02C007900D92AE38B107D9F723E0BC
:10011000AEE8B3E001C01D92AE38B207E1F70E942D
:1001200062010C94FE040C940000CF93DF9300D086
:10013000CDB7DEB79A8389836B834B8189819A819E
:10014000FC01828193819C0189819A81FC018081DB
:100150009181B9010E94760300000F900F900F90DB
:10016000DF91CF910895CF93DF93CDB7DEB7289776
:100170000FB6F894DEBF0FBECDBF9A8389834B8341
:100180005C836D837E838B819C81AD81BE8129815F
:100190003A81F90122813381B90129813A81F9013A
:1001A0000190F081E02DF887EF839C01AD018F81F4
:1001B00098850E94A70328960FB6F894DEBF0FBE5D
:1001C000CDBFDF91CF910895CF93DF931F921F9200
:1001D000CDB7DEB79A83898389819A81880F991F69
:1001E000880F991F88599D4FFC0180819181A281C0
:1001F000B381BC01CD010F900F90DF91CF91089595
:100200001F93CF93DF93CDB7DEB728970FB6F8943F
:10021000DEBF0FBECDBF9E838D8378876F8311E0D5
:100220008F819885892B09F410E08D819E810E9431
:10023000E400DC01CB0189839A83AB83BC83612F0B
:10024000CE0101960E949500000028960FB6F89402
:10025000DEBF0FBECDBFDF91CF911F910895CF9329
:10026000DF93CDB7DEB727970FB6F894DEBF0FBE8A
:10027000CDBF9E838D836F838D819E810E94E4001C
:10028000DC01CB0189839A83AB83BC838F8181306E
:1002900029F480E091E0A0E0B0E004C081E090E0CB
:1002A000A0E0B0E0AC01BD01CE0101960E94B30018
:1002B000000027960FB6F894DEBF0FBECDBFDF91CA
:1002C000CF910895CF93DF93CDB7DEB761E08DE096
:1002D00090E00E942F0161E070E08DE090E00E94CC
:1002E0000001FFCFCF93DF931F92CDB7DEB7898395
:1002F00000000F90DF91CF910895CF93DF9300D04E
:100300001F92CDB7DEB79A8389837C836B8300000D
:100310000F900F900F900F90DF91CF910895CF9392
:10032000DF93CDB7DEB78DE00E9472018AE00E94B4
:1003300072010000DF91CF910895CF93DF9300D039
:1003400000D0CDB7DEB749835A836B837C838D831E
:100350009E8380E092E00E94D9028B819C810E9462
:10036000D9020E948F0187E092E00E94D9028D811C
:100370009E810E94D9020E948F018EE092E00E942D
:10038000D90289819A810E9402030E948F01000094
:1003900026960FB6F894DEBF0FBECDBFDF91CF918A
:1003A0000895CF93DF9300D01F92CDB7DEB79C8323
:1003B0008B831A82198205C089819A8101969A835A
:1003C000898389819A812B813C81820F931FFC0153
:1003D0008081882389F789819A810F900F900F90EF
:1003E0000F90DF91CF9108952F923F924F925F929D
:1003F0006F927F928F929F92AF92BF92CF92DF9235
:10040000EF92FF920F931F93CF93DF93CDB7DEB799
:10041000A4970FB6F894DEBF0FBECDBF2D8F3E8FD1
:100420004F8F58A369A37AA38BA39CA3CE010596F3
:1004300048969C838B838B819C819A838983AD8C26
:10044000BE8CCF8CD8A0E9A0FAA00BA11CA12A2DAC
:100450003B2D4C2D5D2D6E2D7F2D802F912FA0E0FB
:100460000E94ED0419F480E30E94720189819A814F
:1004700001979A83898389819A81FC01108266C0E1
:1004800089819A8101979A8389832D8C3E8C4F8C28
:1004900058A069A07AA08BA09CA00F2EFAE0AF2EE6
:1004A000F02DB12CC12CD12CE12CF12C00E010E06E
:1004B000222D332D442D552D662D772D882D992DE8
:1004C0000E948E04A22EB32EC42ED52EE62EF72E19
:1004D000082F192F2A2D3B2D4C2D5D2D6E2D7F2D94
:1004E000802F912F822F805D282F89819A81FC0196
:1004F00020832D8C3E8C4F8C58A069A07AA08BA0B5
:100500009CA00F2EFAE0AF2EF02DB12CC12CD12CD7
:10051000E12CF12C00E010E0222D332D442D552D3F
:10052000662D772D882D992D0E949004A22EB32E32
:10053000C42ED52EE62EF72E082F192FAD8EBE8E87
:10054000CF8ED8A2E9A2FAA20BA31CA3AD8CBE8CBD
:10055000CF8CD8A0E9A0FAA00BA11CA12A2D3B2D7D
:100560004C2D5D2D6E2D7F2D802F912FA0E00E94B0
:10057000ED0409F085CF89819A810E94D90200009B
:10058000A4960FB6F894DEBF0FBECDBFDF91CF911A
:100590001F910F91FF90EF90DF90CF90BF90AF90A1
:1005A0009F908F907F906F905F904F903F902F9093
:1005B0000895CF93DF931F921F92CDB7DEB79A8332
:1005C000898389819A81892B69F48EE40E94720162
:1005D00085E50E9472018CE40E9472018CE40E9405
:1005E00072010AC089819A810E94D1019C0189818E
:1005F0009A81B9010E947D0100000F900F90DF9158
:10060000CF910895AF92BF92CF92DF92EF92FF9277
:100610000F931F93CF93DF931F921F92CDB7DEB737
:100620009A83898389819A815C01C12CD12CE12C28
:10063000F12C87012A2D3B2D4C2D5D2D6E2D7F2D0C
:10064000802F912F0E94320300000F900F90DF91B6
:10065000CF911F910F91FF90EF90DF90CF90BF90BF
:10066000AF900895AF92BF92CF92DF92EF92FF9238
:100670000F931F93CF93DF93CDB7DEB728970FB6B5
:10068000F894DEBF0FBECDBF29833A834B835C83D2
:100690006D837E838F839887A980BA80CB80DC802E
:1006A000ED80FE800F8118852A2D3B2D4C2D5D2D70
:1006B0006E2D7F2D802F912F0E94F401000028962F
:1006C0000FB6F894DEBF0FBECDBFDF91CF911F9163
:1006D0000F91FF90EF90DF90CF90BF90AF90089573
:1006E000CF93DF93CDB7DEB70E94F904CF93DF93AA
:1006F00000D01F921F92CDB7DEB79A8389837C8387
:100700006B834D838D81882361F089819A81FC01FF
:1007100092818B81292F282B89819A81FC01228348
:100720000CC089819A81FC0192818B818095292F4F
:10073000282389819A81FC01228380E090E00F9038
:100740000F900F900F900F90DF91CF910895CF935E
:10075000DF93CDB7DEB7A0970FB6F894DEBF0FBE1C
:10076000CDBF9A8F898F7C8F6B8F2D8F3E8F4F8F50
:1007700058A38D8D9E8DAF8DB8A18827AA27BB2742
:10078000892B8A2B8B2B71F08D8D9E8DAF8DB8A10F
:100790009927AA27BB27892B8A2B8B2B19F08FEF40
:1007A0009FEFB3C08D8D9E8DAF8DB8A181709927BD
:1007B000AA27BB27892B8A2B8B2B09F48CC0898D08
:1007C0009A8DFC0191818B8D8095292F2823898D0D
:1007D0009A8DFC0121838D8D9E8DAF8DB8A1807186
:1007E0009927AA27BB27892B8A2B8B2BA1F026E0E0
:1007F000E0E5F2E0CE010196DC0101900D922A9530
:10080000E1F749815A816B817C818D819E810E94B3
:100810009D010E9470038D8D9E8DAF8DB8A1827059
:100820009927AA27BB27892B8A2B8B2B99F086E047
:10083000E6E5F2E0DE01179601900D928A95E1F768
:100840004F81588569857A858B859C850E949D019D
:100850000E9470038D8D9E8DAF8DB8A184709927F5
:10086000AA27BB27892B8A2B8B2B99F086E0ECE5F6
:10087000F2E0DE011D9601900D928A95E1F74D851B
:100880005E856F85788989899A890E949D010E9479
:1008900070038D8D9E8DAF8DB8A188709927AA2782
:1008A000BB27892B8A2B8B2B99F086E0E2E6F2E0BE
:1008B000DE01539601900D928A95E1F74B895C8990
:1008C0006D897E898F89988D0E949D010E94700399
:1008D00080E090E01AC08D8D9E8DAF8DB8A18827E5
:1008E0009170AA27BB27892B8A2B8B2B71F0898DBE
:1008F0009A8DFC0191818B8D292F282B898D9A8DC2
:10090000FC01218380E090E000C0A0960FB6F8942F
:10091000DEBF0FBECDBFDF91CF910895689401C0B7
:10092000E8948F929F92CF93DF930E949C04DF9173
:10093000CF919F908F90089588249924F401E40129
:10094000B0E49F93AA279A158B049C04ED05FE053D
:10095000CF05D007A10798F4AD2FDC2FCF2FFE2FA6
:10096000E92D982C892E982F872F762F652F542FBD
:10097000432F322F2227B85031F7BF9127C01B2EAB
:10098000BF91BB27220F331F441F551F661F771FC0
:10099000881F991F881C991CEE1FFF1FCC1FDD1F8D
:1009A000AA1FBB1F8A149B04EC05FD05CE05DF05BD
:1009B000A007B10748F08A189B08EC09FD09CE0989
:1009C000DF09A00BB10B21601A94E1F62EF494011B
:1009D000AF01BE01CD01000C08950024A7FD0094D5
:1009E0002A17300540055005600570058005900503
:1009F000089581E090E0F8940C94FE04F894FFCF01
:100A000066696C653A200066756E633A20006C6911
:100A10006E653A20002F686F6D652F6D69726D6984
:100A20006B2F70726F6A6563742F7A696C6C6F7468
:100A30002F7A696C6C6F742F617263682F617672A4
:100A40002F61736D2F6176725F6770696F2E63001F
:100A50002700150280032C001502800331001502C7
:100A600080033600150280032C0001002C000200D8
:100A70002C0010002C002000320020002C00080068
:100A800000010800000110000001200000014000EA
:100A900023001000230020002300400023008000DA
:100AA0000301020003010100000102000001010036
:100AB0002900080029000400290002002900010083
:100AC0002000010020000200200004002000080097
:100AD00020001000200020002000400020008000A6
:100AE000260080002600400026002000260010007E
:100AF000260008002600040026000200260001004F
:100B0000290080003200040032000200320001009F
:100B100009018000090140000901200009011000BD
:100B2000090108000901040009010200090101008E
:100B3000230008002300040023000200230001001A
:100B40002F0001002F0002002F0004002F000800DA
:100B50002F0010002F0020002F0040002F008000E9
:100B6000060101000601020006010400060108005A
:100B70000601100006012000060140000601800069
:0E0B80006176725F6770696F5F6D6F6465000C
:00000001FF
